:020000040808EA
:10000000000008083C640808000006000A0005011A
:0800100004024E040000000090
:100018007457080809480A4908B5884205D0094AAA
:10002800824202D0121A04F0C5FE0748074A00218E
:10003800121A04F0E5FE064808BD00BF00040020BF
:100048002C630808E8040020E8040020F00C0020D5
:10005800F00C002070B503F0ABFB074B074C1E46B5
:10006800E41AA4080025A54204D056F8253098477C
:100078000135F8E770BD00BFD060080820610808A6
:1000880001F0E8B808B500F0D1FCBDE8084003F07D
:1000980051BB01F049BF01F04FBF0078B0FA80F0C2
:1000A800400970470123037070470368C9B29B6811
:1000B800184700224270704710B50446017003F0DB
:1000C8001BFC02F02FFC0120607010BD70B50646C5
:1000D8000C46154603F010FC317802F03AFC03F0A8
:1000E8000BFC210AFFF7E1FF03F006FCE1B2FFF782
:1000F800DCFF03F001FC036829469B68984703F07E
:10010800FBFBBDE8704002F02FBC38B504460D4635
:1001180003F0F2FB217802F01CFC03F0EDFB290A46
:10012800FFF7C3FF03F0E8FBE9B2FFF7BEFF03F0F8
:10013800E3FB02F019FC03F0DFFB0122217802F057
:1001480000FC03F0D9FB03685B699847C0B238BD6F
:1001580001F0ACBC014B01221A7070474905002020
:1001680008B5044B01221A7003F057F9024B1860C6
:1001780008BD00BF240500200405002008B5044977
:1001880003F007F818B1034B06221A70012008BDC6
:100198001D5D08082005002008B5054902F0F9FF93
:1001A80020B10420012103F064FB012008BD00BF39
:1001B8001D5D080837B505469DF8184023438DF89E
:1001C80000303C2302F09CF9284603B030BD000003
:1001D80081B20148FFF799BFF80400200A4681B2AE
:1001E8000148FFF773BF00BFF804002070B5074D42
:1001F80084B221462846FFF788FF611C064689B26B
:100208002846FFF782FF06EB002070BDF8040020A7
:1002180070B50E46074D84B2CAB228462146FFF78C
:1002280055FF611CC6F307222846BDE8704089B215
:10023800FFF74CBFF804002008B5124902F0A9FFE7
:10024800F8B100210C20FFF7E3FF00210820FFF799
:10025800DFFF00210A20FFF7DBFF02200021FFF764
:10026800BDFF094A00231360084A01201360084AA9
:100278001360084A1360084A1360084A1360084A62
:10028800137008BD1D5D080834050020FC0400201B
:1002980028050020EC040020600500201C05002033
:1002A800BD0500202DE9F0410F4E84B221463046AD
:1002B800FFF72BFF611C054689B23046FFF725FF83
:1002C800A11C804689B23046FFF71FFFE11C074694
:1002D80089B23046FFF719FF05EB082505EB0745FE
:1002E80005EB0060BDE8F081F804002070B50E460B
:1002F8000E4D84B2CAB228462146FFF7E7FE611CBC
:10030800C6F30722284689B2FFF7E0FEA11CC6F310
:100318000742284689B2FFF7D9FEE11C320E28466B
:10032800BDE8704089B2FFF7D1BE00BFF8040020D5
:1003380030B58FB0104904A801F0A2FE04A801F05E
:10034800FAFE044604A801F055FF054604A801F08A
:1003580039FF03F00BFECDE90201284603F006FE43
:10036800CDE90001054B064A53F8243040210548E1
:1003780001F002FE0FB030BDE80500201004002097
:10038800885708086C05002008B50A2003F09DFA74
:1003980003F0DAFD14A3D3E9002303F03BFE04F0D5
:1003A80073F84FF0665104F0CDF903F0DFFD002239
:1003B8000F4B03F07BFC00220E4B03F02BFE04F0E6
:1003C8003BF803F0C1FD00220B4B03F023FE002293
:1003D8000A4B03F049FF0022094B03F069FC04F0C3
:1003E8002BF8084B186008BD6666666666660A40A4
:1003F8000000E03F00005940000022400000144087
:10040800000040404405002008B5094B0022114671
:10041800586801F051FD08B1FFF78AFFFFF7B4FFF4
:10042800044802F01DFA04F053FB034B186008BDA2
:10043800E80500200C0500202C05002008B5012146
:10044800062003F016FA0021062003F012FA024BE8
:1004580000221A7008BD00BF490500202DE9D043CD
:100468001A4800231A461946406801F02DFD40F24B
:10047800E73601F0C9FC4FF496740027002001F01C
:100488000DFB80464FF00009002001F007FBB0EBA0
:10049800080061EB09018F4208BF864205D301F0CD
:1004A800C3FC10B901F0A8FCEEE701F0BDFC18B1DF
:1004B800BDE8D04301F0B8BC01F0D8FA044B18608D
:1004C80001F09AFC013CF3D0D8E700BFE805002012
:1004D800BC0B002008B501F09FFC064800231A4613
:1004E8001946406801F0F8FC4FF47A7001F05CFDA1
:1004F800012008BDE80500201FB51F4802F04AFB8F
:100508001D4802F0F4FC1D4B1C781D4BBCB1142295
:1005180041F2E82118481A6002F0BEFB4FF46171FD
:10052800154802F043FC0022114602920192009203
:100538000123114802F082FC41F2700116E01E22EC
:1005480041F270010C481A6002F0A6FB40F2DC513F
:10055800094802F02BFC01232146029401940094DF
:100568001A46054802F06AFC41F21001024804B03C
:10057800BDE8104002F095BC21050020BC05002014
:10058800F00400207FB5FFF769FF08210720FFF777
:1005980025FE0A240121072003F06BF94FF4FA70B5
:1005A80001F002FD0021072003F063F94FF4FA700F
:1005B80001F0FAFC013CEDD103F01CF82E4902F0E1
:1005C800E6FCC0251220FFF711FE844238DA03F05A
:1005D80011F806462846FFF765FE0146684602F010
:1005E800D9FE0099304602F0BFFC684602F05DFD76
:1005F80003F000F8214902F0B7FC02F0FBFF0646C1
:10060800281DFFF7F3FD0A220146304602F017FDC8
:1006180002F0F0FF1A4902F0A7FC02F0EBFF0646D1
:10062800A81DFFF7E3FD0A220146304602F007FD48
:1006380002F0E0FF134902F0AAFC01340835C1E7D3
:1006480002F0D8FF0D4902F0A2FC02F0D3FF0E49D8
:1006580002F09DFC0121072003F00BF94FF4FA701A
:1006680001F0A2FC0021072003F003F94FF4FA700F
:1006780001F09AFCEEE700BFA1570808C657080822
:10068800C5570808C9570808CE57080837B501F0F4
:10069800C3FB01F0EBF943F69725044601F0C4FBD0
:1006A80040B101F0E3F9001BA84203D8642001F02F
:1006B8007BFCF3E70021094B47F23052084601F072
:1006C800A5F94FF47A7001F06FFC054B0A221B68FC
:1006D8000121684602F090FD03B030BDFE570808BE
:1006E8004C05002038B5046805467CB16368013BB9
:1006F80063605BB9236820469B689847A368013B01
:10070800A3601BB923682046DB689847284638BD94
:1007180030B5072085B0FFF75BFD1F4B00221B7823
:100728001E498DF8002005461D4A02A8FFF742FD24
:1007380003A8FFF7D7FF082400212046FFF74EFD46
:10074800B4F5005F03D102F055FF164914E0B4F583
:10075800804F03D102F04EFF13490DE0B4F5C04FAE
:1007680003D102F047FF114906E047F6FF739C42A8
:1007780004D102F03FFF0E4902F009FC0134B4F540
:10078800004FD9D129460720FFF728FD092100206D
:10079800FFF724FD05B030BD000500208F5A08087A
:1007A8000B580808215808082A5808083358080818
:1007B8003C58080808B5044902F0EBFC10B1FFF7F3
:1007C800A7FF012008BD00BF1D5D08082DE9F04FF7
:1007D800574B584D584E00271F70C7B030682968CE
:1007E80004F0EAF9554C82468B462868216804F0E3
:1007F800E3F9534B80461B68504689465946039394
:1008080003F01AFE039BB2469842AB466CDD1846CD
:1008180003F09AFB42464B4603F04AFA03F00CFEFB
:100828008046484E082031680131316089B2FFF7AF
:10083800EFFC454B0A2019684144196089B2FFF75B
:10084800E7FC424B0C2019680131196089B2FFF7A7
:10085800DFFC21680E20FFF749FD1220FFF7C6FCD8
:100868001830C50021682846FFF740FD3188281D4B
:10087800FFF7CEFC1FFA88F1A81DFFF7C9FC12206C
:10088800FFF7B4FC4FF47E63013090FBF3F103FBF8
:1008980011011220FFF7BCFC2D4B0720197881F0BD
:1008A8000101197002F0E5FFCDF800803368294A8C
:1008B8004FF4807106A801F05FFB274B1B785BB1F2
:1008C800264B04A81B7806AA8DF800702449FFF768
:1008D80071FC05A8FFF706FFDAF80030CBF8003006
:1008E800DAF80030236001E033682B60052002F05D
:1008F800D9FF0446C8B91B4D2B78B3B1174B1A4A18
:100908001B781A498DF8000004A8FFF753FC05A8C6
:10091800FFF7E8FE164B0720197801F07E011970E1
:10092800FFF75CFC2C70FFF799FD47B0BDE8F08F2E
:10093800240500201805002004050020B405002027
:10094800B805002028050020FC040020EC04002045
:1009580014050020415808085C0500200005002007
:10096800595A0808560500205F580808B65908085B
:10097800BE05002030B51F4A1F4D13681446002BD2
:10098800C8BF29681D4ACCBF91FBF3F10021116053
:100998001B49C9B0096808A804911A490968039154
:1009A80019490968029119490968019112684FF4B7
:1009B80080710092164A01F0DFFA164B00221B786C
:1009C80015498DF8002006A808AAFFF7F3FB07A829
:1009D800FFF788FE2268114B1A602A68104B1A60CC
:1009E80002F022FD0F4B012218700F4B1A7049B00C
:1009F80030BD00BF28050020FC0400206805002049
:100A080034050020440500202C050020EC040020BB
:100A18007158080800050020C25808081C05002065
:100A28006005002048050020BD050020F0B5A84C51
:100A380089B02378013B062B00F2AF81DFE813F081
:100A48008601070055009800CB00EE001701A14D64
:100A58002968A1B1A04A08201368A04E591A11604C
:100A680089B2FFF7D5FB9E4A316813680A20591AE4
:100A7800116089B2FFF7CCFB002333602B60994BE0
:100A88001B780BB1FFF7A2FE974B1B780BB1FFF752
:100A9800D5FC964B1B784BB100F0E8FF944B1A68D5
:100AA800944B1B6813448342C0F0828102F0BCFC63
:100AB800914B1B7898421CBF0623237002F0B4FCAC
:100AC8008E4B1B68984280F2768102F0ADFC8C4B0D
:100AD8001B689842C0F26F818A4B1A688A4B1B6860
:100AE8009A4200F35A81052308E0884B1A781F467A
:100AF800A2BB794B1A681D4612B1062323704CE13C
:100B080001F092F908B1FFF7E5FC0320804E01F0EF
:100B18006FFF00210C20FFF77BFB31780220FFF7E5
:100B28005DFB00210820FFF773FB00210A20FFF777
:100B38006FFB6B4B00241C60764B21461C60764B88
:100B480007201C702C60346002F093FE21461D20A3
:100B580002F08FFEFFF772FC01233B7002F06EFC7F
:100B68006E4BC0F13C003C221B684243022151E01D
:100B780001F05AF970B16A4B00221B7869498DF867
:100B8800002006A8684AFFF715FB07A8FFF7AAFD8B
:100B9800FFF7A0FC604B00210720197002F069FEE6
:100BA800FFF74CFC02F04AFC5C4B01221968032356
:100BB800ADF8163008AB03F80B2DC0F13C000291DC
:100BC8003C214843009201900DF1160106A802F05D
:100BD80043FB022392E701F027F908B1FFF77AFCFB
:100BE800032001F005FF00244B4B214607201C7011
:100BF80002F03FFE21461D2002F03BFE3A4B012445
:100C08001C7002F01BFC2146C0F13C003C22434B07
:100C180042431B6806A802F0EFFABEE0324B0125FA
:100C28001D7001F001F940B9FFF718FC28B900F070
:100C38001DFF3E4B25701860AFE0FFF7E5FBFFF79F
:100C480099FE00F013FF3A4B18603A4B1B7863B1DA
:100C5800334B00221B7806A88DF800203149364A0C
:100C6800FFF7A8FA07A8FFF73DFD072346E7334B30
:100C78001D7885B90223237000F0F8FE1C4B18601C
:100C88002C4B1B78002B00F08880254B2C4A1B78B6
:100C98008DF8005014E000F0E9FE254B1A68294B46
:100CA8001B681344834278D200F0E0FE1F4B0022F9
:100CB8001860012323701A4B1B788DF80020224AF4
:100CC80006A81849FFF776FA07A8FFF70BFD64E0B6
:100CD800200500201C0500202805002060050020B4
:100CE800FC040020240500204905002056050020AA
:100CF800640500200804002048050020580500204D
:100D0800B00500202C050020F0040020BF050020BD
:100D180034050020EC040020140500204C050020B8
:100D280000050020ED580808D1580808AC05002037
:100D3800F40400205C050020F3580808BD050020D5
:100D4800085908080C0400200D59080800F08EFE08
:100D58001A4B1A681A4B1B68134498421DD9194B31
:100D680000241B78184A194906A88DF80040FFF797
:100D780021FA07A8FFF7B6FC4FF4FA6001F014F95E
:100D8800134B1B68032B02DC02F032FA05E0214604
:100D98000220FFF723FAFFF779FC00F067FE0D4BFE
:100DA800186001F029F80C4800F022FD09B0F0BDE8
:100DB800042323707AE6032323708DE6AC05002014
:100DC800000400200005002024590808ED580808F0
:100DD80034050020BC0B0020380500202DE9F04127
:100DE80084B0084602AF0D4604F067F800F1080326
:100DF80023F00703E846ADEB030D02AC421C29467D
:100E0800204604F077F89DF80820144E22B933786C
:100E18008DF80020124A15E0204603F0BBFEC838C2
:100E28000025012833788DF800500AD80D4A0E495C
:100E38003846FFF7BFF9381DFFF754FC0B4B1D7000
:100E480007E0224638460A49FFF7B4F9381DFFF78C
:100E580049FCC5460837BD46BDE8F08100050020BD
:100E68003C59080851590808ED580808BD050020E4
:100E78004459080810B5C6B00A2203A9006804F04E
:100E8800D3F8C4B2FA2C1DD821460320FFF7A6F9DF
:100E98000F4B104A1C604FF48071234606A801F0DE
:100EA8006BF80D4B1B787BB10C4B00221B7804A808
:100EB8008DF800200A4906AAFFF77CF905A8FFF774
:100EC80011FC01E0002000E0012046B010BD00BF89
:100ED800B8050020635908085C05002000050020BB
:100EE8007F59080830B5204985B0054602F051F908
:100EF8000446B0B11D4B012407201C70FFF768F9A8
:100F08001B4B40F00400C1B207201970FFF766F9C7
:100F1800FFF7F2FA174B00221B788DF80020164ACB
:100F280017E01649284602F034F9D0B10F4B0720D4
:100F38001C70FFF74DF90E4B00F0FB0107201970EC
:100F4800FFF74CF9FFF7D8FA0A4B0D4A1B788DF8D2
:100F580000400C4902A8FFF72DF903A8FFF7C2FBD0
:100F6800012005B030BD00BF1D5D0808BC0500208C
:100F7800BE0500200005002089590808485B0808BC
:100F8800A0590808B659080830B51E4985B0054665
:100F980002F0FFF80446A0B11B4B012407201C7087
:100FA800FFF716F9194B40F00800C1B20720197075
:100FB800FFF714F9164B00221B788DF80020154A0C
:100FC80015E01549284602F0E4F8C0B10E4B072099
:100FD8001C70FFF7FDF80D4B00F0F70107201970A2
:100FE800FFF7FCF80A4B0D4A1B788DF800400C49B6
:100FF80002A8FFF7DFF803A8FFF774FB012005B08C
:1010080030BD00BF1D5D08085C050020BE0500203E
:1010180000050020BB590808485B0808CC59080897
:10102800B659080870B5CCB00A2205A9006803F0C3
:10103800FBFFC5B205F10C03DBB2182B3BD844B259
:10104800204603F02BFB02F089F929460420FFF71C
:10105800C5F802F0E2F9194E194D23463060194AD5
:101068004FF4807100240CA800F086FF2B780CAA9E
:10107800154908A88DF80040FFF79CF809A8FFF764
:1010880031FB4FF47A7000F08FFF316808A802F046
:1010980081F9089B0C490393039A2B7806A88DF8CD
:1010A8000040FFF787F807A8FFF71CFB08A801F026
:1010B800FCFF012000E000204CB070BD08050020B6
:1010C80000050020E1590808845A080810B5C6B080
:1010D8000A2203A9006803F0A7FF17281BD80F4CA2
:1010E800C1B220600520FFF779F823680C4A4FF455
:1010F800807106A800F040FF0A4B00221B780A49BD
:101108008DF8002004A806AAFFF754F805A8FFF7F1
:10111800E9FA012000E0002046B010BDB00500202B
:10112800F559080800050020845A080810B5C6B00B
:101138000A2203A9006803F077FF18281BD80F4C70
:10114800C1B220600620FFF749F823680C4A4FF423
:10115800807106A800F010FF0A4B00221B780A498C
:101168008DF8002004A806AAFFF724F805A8FFF7C1
:10117800B9FA012000E0002046B010BD5805002053
:10118800095A080800050020845A08087FB5244930
:10119800054601F0FEFF28B92249284601F0F9FF6B
:1011A80000283BD00720FFF713F81F4C1C4920707C
:1011B800284601F0EEFF0646A0B11C4B00221B7822
:1011C8001B498DF8002002A81A4AFEF7F3FF03A86E
:1011D800FFF788FA2378012243F001032370164BA6
:1011E8001A7016E00F49284601F0D3FF88B10F4B5B
:1011F800124A1B780E4902A88DF80060FEF7DAFF44
:1012080003A8FFF76FFA237803F07E0323700A4BD5
:101218001E7007202178FEF7E1FF012004B070BDA1
:101228001D5D0808485B0808BE0500200005002071
:10123800B6590808205A0808560500205F580808BB
:101248000023022200F0C8BD0246014801F039B867
:101258009F220808F0B5A9B002F04EFB01F062FB2E
:1012680001211C2002F0F4FA00211C2002F001FBED
:101278000221032002F0ECFA0021112002F0E8FA22
:101288000021052002F0E4FA0121072002F0E0FA2B
:1012980001211D2002F0DCFA01211D2002F0E9FAEB
:1012A8000121062002F0D4FA0121042002F0D0FA2C
:1012B800FFF7C4F804A8002400F0BEFD00237D2237
:1012C80008A904A801F077FF23462246A049019403
:1012D800009408A800F0C0FD9E499F48FFF7B0FFA2
:1012E8009E499F48FFF7ACFF9E499F48FFF7A8FF1C
:1012F800234604229D499E4800F06EFD9D499E4864
:10130800FFF79EFF9D492346042209689C4800F088
:1013180063FD9C499C48FFF793FF234601229B49A4
:101328009B4800F059FD9B499B48FFF789FF9B4963
:101338009B48FFF785FF9B499B48FFF785FF9B4923
:101348009B48FFF781FF9B499B48FFF77DFF9B491F
:101358009B48FFF779FF9B499B48FFF775FF9B491F
:101368009B48FFF771FF9B499B48FFF76DFF9B491F
:101378009B48FFF769FF9B499B48FFF765FF9B491F
:101388009B48FFF761FF9B499B48FFF75DFF9B4820
:1013980000F0DEFA50219A48FEF78EFE994D58B1BA
:1013A8002046FEF715FF09281DD0FFF7B1F92046A2
:1013B800FEF70EFF092806D000F058FB924B186084
:1013C80001232B700FE021460720FEF707FF214677
:1013D8000520FEF703FF18210620FEF7FFFE022175
:1013E8000320FEF7FBFE0220FEF7F2FE614C00220E
:1013F800206028A840F8942D114600F027FB039B95
:10140800142B06D12168022001312160C9B2FEF7F0
:10141800E5FE2368052B05DD04210220FEF7DEFE2C
:10142800FFF734F90320FEF7D3FE4E4B594E1860F0
:101438000520FEF7CDFE30600620FEF7C9FE574CAA
:10144800374620600420FEF7C3FE00F10C03DBB230
:10145800182B264603D840B203F020F900E06B4869
:1014680001F07CFF0720FEF7B3FE694B474C18706C
:1014780000F001032370674BC0F380021A70664BBB
:10148800C0F3C0001870FFF737F8FEF7BDFF2378E8
:101498007BB93C4B1A68614B1B689A4209DB01F027
:1014A800C3FF3368984204DA01F0BEFF3B689842F4
:1014B8004BDA01F0B9FF5A4B187001F0C9FF594BCC
:1014C80018700E20FEF7EEFE044601F037FF564B6B
:1014D8001870204601F03AFF544B18700C20FEF7A4
:1014E80085FE1E4B18600820FEF780FE194B186019
:1014F8000A20FEF77BFE4E4B186001F08EFF4D4B25
:1015080018604D4B1860052002F0CCF908B9FFF7B8
:1015180039F8002400944FF0FF3301224749112085
:1015280001F03CFA0122464900944FF0FF330320B2
:1015380001F034FA2B7804A8012B1EBF314B02228C
:101548001A7001F0B2FD29B0F0BDFEF787FFB0E7D1
:10155800E50D0808280500202A5A0808EC04002090
:10156800365A0808B8050020415A08086C050020BA
:101578004D5A080834050020545A0808040400206D
:101588005F5A08082C050020675A080856050020ED
:10159800725A0808B0050020F55A080858050020B6
:1015A8007F5A0808BD070808895A08084102080830
:1015B800945A0808A1010808A15A08087D0E0808CD
:1015C800AC5A080885010808B85A0808951108088F
:1015D800C15A0808ED0E0808CE5A0808910F0808E5
:1015E800D95A08082D100808E65A0808D51008081E
:1015F800F25A080835110808FE5A0808380500206C
:10160800F804002020050020AC0500200000A0C040
:10161800BE050020BC0500205C050020F004002069
:101628004805002023050020220500203005002061
:10163800FC040020B4050020180500205D010808FE
:10164800690108081E4B70B500241C601D4B01255C
:101658001D7000F02BFA1C48FEF72BFD4FF6FF72A9
:101668001A4B02201C705C809A8000F05FFB184EB9
:101678002146284600F072FB2946042000F0D6F9DE
:10168800144D2146304601F0ABF83046124E2A463A
:10169800124902F0B7F921463046114C01F091FA8F
:1016A8002A461049304602F0ADF90F49204600F0AD
:1016B8007DF82A462046BDE870400C4902F0A2B9E0
:1016C8004C05002000050020F804002050050020EB
:1016D8000C050020E8040020210500200728080840
:1016E80038050020E92B0808075B0808A517080833
:1016F80010B58368044613B1032201469847204673
:1017080010BD00F0D3B9000070B50E4B0E4D00248B
:101718001C600E4E00F0CAF92146284601F060F818
:1017280028460B4D32460B4902F06CF921462846F3
:1017380001F047FA32462846BDE87040064902F0F3
:1017480061B900BFC8050020C0050020E8040020DA
:10175800CC05002007280808E92B08080EB400B5B6
:101768008CB00DAA52F8041B20238DE806000392C2
:1017780004930168002304AA1E20059300F0C6FA0A
:101788000CB05DF804EB03B070470000024B002278
:101798001A6000F08BB900BFD0050020704710B563
:1017A8000446FEF778FC204610BD0000034A41605D
:1017B800026000228260024A10607047045C0808D8
:1017C800D805002010B5044600F02EFB48B100F003
:1017D8004DF9A368C01A40F2F133984294BF002033
:1017E800012010BD10B5044600F040F9A06010BDFE
:1017F8002DE9F043344DD5B06B680746002B5FD018
:10180800FFF7E0FF00285BD04FF000082E46444663
:101818006B689C421BD273692C4A0293336940213E
:101828000193F36804A80093B36800F0A5FB00EBEC
:101838000809B9F1FF0F06F1100608D814AB03EB3D
:10184800080004A903F016FB0134C846E0E76A68FB
:101858001D4E121B6A607AB11D491E48FFF77EFFB4
:10186800736806EB04114FF402725A43083106F10B
:10187800080003F0AAFA04E0224617491548FFF7C2
:101888006DFF164B14AA1B7804A88DF800307968F0
:101898003C2300F035FE059C7CB16368013B636026
:1018A8005BB9236820469B689847A368013BA360FF
:1018B8001BB923682046DB6898473846FFF792FF34
:1018C80055B0BDE8F08300BF004002404A5B0808FD
:1018D800595B080800070020875B0808D40500202A
:1018E8002DE9F041164C0F46636890461F2B0FD91F
:1018F80014491548FFF732FF63684FF40272013B41
:101908005A4304F1180104F10800636003F05DFA1A
:101918006668751C656001F080FD04EB0616B06012
:1019280000F0A4F82D016319F060C3F80480675132
:1019380043463A4605490448FFF710FFBDE8F081E1
:1019480000400240965B080800070020AB5B0808CF
:1019580073B5124C124B226806469A421D4602D1B4
:101968006368202B06D90F490F48FFF7F7FE0023BD
:1019780025606360002211463046FFF7B1FF002260
:1019880002A840F8042D114600F060F8019A1AB137
:1019980012213046FFF7A4FF02B070BD004002409C
:1019A80016D4395CCC5B080800070020024B0122E2
:1019B8001A7000F07BB800BFD4050020024B01224A
:1019C8001A7000F073B800BFDC050020044B002239
:1019D8001A60044A01231360034A137000F066B8C2
:1019E800E0050020E4050020DD05002008B5024BD5
:1019F8001B68DB6B019308BD2000060808B5024B85
:101A08001B685B6C019308BD2000060808B5024BF3
:101A18001B689B6C019308BD2000060808B5024BA3
:101A28001B681B6B019308BDD001040808B5024B65
:101A38001B685B6E019308BDB801040808B5024B2A
:101A48001B689B6E019308BDB801040808B5024BDA
:101A58001B68DB6E019308BDB801040808B5024B8A
:101A68001B685B68019308BD9C01040808B5024B1C
:101A78001B685B69019308BD9C01040808B5024B0B
:101A88001B68DB69019308BD9C01040808B5024B7B
:101A98001B689B6D019308BD9C01040808B5024BA7
:101AA8001B68DB6D019308BD9C01040808B5024B57
:101AB8001B681B68019308BDB001040808B5024BF8
:101AC8001B685B68019308BDB001040808B5024BA8
:101AD8001B689B68019308BDB001040808B5024B58
:101AE8001B68DB68019308BDB001040808B5024B08
:101AF8001B681B69019308BDB001040808B5024BB7
:101B08001B685B69019308BDB001040808B5024B66
:101B18001B689B69019308BDB001040808B5024B16
:101B28001B68DB69019308BDB001040808B5024BC6
:101B38001B681B6B019308BDB001040808B5024B74
:101B48001B68DB68019308BDAC01040808B5024BAB
:101B58001B685B69019308BDAC01040808B5024B1A
:101B68001B689B69019308BDAC01040808B5024BCA
:101B78001B68DB69019308BDAC01040808B5024B7A
:101B88001B681B6A019308BDAC01040808B5024B29
:101B98001B685B6A019308BDAC01040808B5024BD9
:101BA8001B689B6A019308BDAC01040808B5024B89
:101BB8001B68DB6A019308BDAC01040808B5024B39
:101BC8001B681B6B019308BDAC01040808B5024BE8
:101BD8001B685B6B019308BDAC01040808B5024B98
:101BE8001B681B6C019308BDAC01040808B5024BC7
:101BF8001B689B6C019308BDAC01040808B5024B37
:101C08001B68DB6C019308BDAC01040808B5024BE6
:101C18001B68DB69019308BDB401040808B5024BD1
:101C28001B681B6A019308BDB401040808B5024B80
:101C38001B689B69019308BDC401040808B5024BE1
:101C48001B685B6A019308BDC401040808B5024B10
:101C58001B689B6A019308BDC401040808B5024BC0
:101C68001B68DB6A019308BDC401040808B5024B70
:101C78001B681B6B019308BDC401040808B5024B1F
:101C88001B685B6B019308BDC401040808B5024BCF
:101C98001B689B6B019308BDC401040808B5024B7F
:101CA8001B681B6C019308BDC401040808B5024BEE
:101CB8001B681B68019308BD1C00060808B5024B89
:101CC8001B681B69019308BD1C00060808B5024B78
:101CD8001B685B69019308BD1C00060808B5024B28
:101CE8001B689B69019308BD1C00060808B5024BD8
:101CF8001B68DB69019308BD1C00060808B5024B88
:101D08001B681B6A019308BD1C00060808B5024B36
:101D18001B685B6D019308BDA001020808B5024B62
:101D28001B681B68019308BDA401040808B5024B91
:101D38001B685B68019308BDA401040808B5024B41
:101D48001B685B69019308BDA401040808B5024B30
:101D58001B689B69019308BDA401040808B5024BE0
:101D68001B68DB6A019308BDA401040808B5024B8F
:101D78001B68DB6C019308BDA401040808B5024B7D
:101D88001B685B6D019308BDA401040808B5024BEC
:101D98001B689B6D019308BDA401040808B5034B9B
:101DA8001B68D3F89030019308BD0000A401040813
:101DB80008B5034B1B68D3F89C30019308BD00009D
:101DC800A401040808B5034B1B68D3F8A830019395
:101DD80008BD0000A401040808B5024B1B681B6875
:101DE800019308BDCC01040808B5024B1B685B6869
:101DF800019308BDCC01040808B5024B1B689B6819
:101E0800019308BDCC01040808B5024B1B68DB68C8
:101E1800019308BDCC01040808B5024B1B681B6977
:101E2800019308BDCC01040808B5024B1B685B6927
:101E3800019308BDCC01040808B5024B1B68DB6997
:101E4800019308BDCC01040808B5024B1B681B6A46
:101E5800019308BDCC01040808B5024B1B685B6AF6
:101E6800019308BDCC01040808B5024B1B681B6B25
:101E7800019308BDCC01040808B5024B1B68DB6B55
:101E8800019308BDCC01040808B5024B1B685B68C8
:101E9800019308BDC801040808B5024B1B689B687C
:101EA800019308BDC801040808B5024B1B68DB682C
:101EB800019308BDC801040808B5024B1B681B69DB
:101EC800019308BDC801040808B5024B1B685B698B
:101ED800019308BDC801040808B5024B1B689B693B
:101EE800019308BDC801040808B5024B1B68DB69EB
:101EF800019308BDC801040808B5024B1B681B6A9A
:101F0800019308BDC801040808B5024B1B681B6B88
:101F1800019308BDC801040808B5024B1B685B6B38
:101F2800019308BDC801040808B5024B1B681B686B
:101F3800019308BDA001040808B5024B1B685B6843
:101F4800019308BDA001040808B5024B1B689B68F3
:101F5800019308BDA001040808B5024B1B681B6962
:101F6800019308BDA001040808B5024B1B689B69D2
:101F7800019308BDA001040808B5024B1B68DB6982
:101F8800019308BDA001040808B5024B1B68DB6A71
:101F9800019308BDA001040808B5024B1B681B6B20
:101FA800019308BDA00104080021FFF7C7BE10B5C2
:101FB800836804460BB901F02AFDC3689847A368F3
:101FC8001BB103222146204698472046BDE8104011
:101FD800FEF761B8002211464068FFF76DBF2DE992
:101FE800FF41002604AC054610468846174644F8CB
:101FF800046D02F062FF009681B2D8F804302246E0
:102008003846FFF7F3FC20B13146284600F038FD8A
:1020180003E02146284600F02BFD284604B0BDE821
:10202800F081002211464068FFF766BF0022114682
:102038004068FFF771BF00224068FFF765BF0022C4
:1020480081F001014068FFF74FBF00231A46194687
:102058004068FFF741BF00231A4619464068FFF75A
:1020680033BF002211464068FFF716BF0022022145
:102078004068FFF719BF00231A464068FFF704BFFE
:10208800F0B50F461A4B002503601826283389B08F
:1020980043608560C560324629460446103002F028
:1020A800AFFE2A4629467868FFF706FF08B9A06000
:1020B8001BE02946324602A80095019502F0A0FED1
:1020C80002A96846ADF80860FFF798FC10B1012333
:1020D800A3600AE0009B019AA360E2600BB90223A7
:1020E800A36002A9204600F09DF8204609B0F0BD83
:1020F800485C080838B50C4C28252A46002120469B
:1021080002F07EFE4FF0FF3363602580074C042306
:1021180020466360064B2C2540F8083B2A460021E0
:1021280002F06EFE258138BD1C060020E80500205F
:10213800145C08087047007D7047000008B5037DEF
:102148001BB18069B0F1004F01D1002008BD02F039
:10215800A5FA024902F0AAFB08BD00BF0000C84268
:1021680008B5037D1BB1006AB0F1004F01D1002012
:1021780008BD02F093FA024902F098FB08BD00BFBF
:102188000000C84270B50D4606460A2281682846F6
:1021980000F055FF2C210446284600F0E9FE0A22EB
:1021A8000444F168284600F04AFF204470BDA0F1BD
:1021B8000400FFF7E7BF10B50446FDF76CFF2046A3
:1021C80010BD000008B5037D5BB1406A002808DB3C
:1021D80002F064FA044902F069FB044902F0B2FA19
:1021E80008BD034808BD00BF00FF7F470000C84284
:1021F800000080BF08B5037D5BB1C069002808DB1B
:1022080002F04CFA044902F051FB044902F09AFA30
:1022180008BD034808BD00BF00FF7F470000C84253
:10222800000080BF30B50D4600F110040FCD0FC47B
:1022380095E8030084E80300012030BD70470020C2
:10224800704710B50446FDF726FF204610BD08B5B7
:1022580008B1FFF7F6FF08BD38B5C468D4B12378D4
:10226800022B02D1E068FFF767FE65682DB12846AA
:10227800FFF73EFA2846FDF70EFFA5682DB1284660
:10228800FFF736FA2846FDF706FF2046BDE8384036
:10229800FDF701BF38BD10B588B00446684600F0A8
:1022A8004BFF694604A800F069FF04A8A04704464C
:1022B80004A800F0FAFE684600F0F7FE204608B0D1
:1022C80010BDF0B507460E46154685B010242246C7
:1022D8000021684602F094FD002269461046ADF8D8
:1022E8000040029703960195FFF77EFD05B0F0BD0B
:1022F80013B5044691E8050000234B600B6020608D
:10230800626001A801930093FEF7ECF9204602B041
:1023180010BD0B68036013B15A6801325A607047E8
:10232800F7B50C4606460F4654F8043B02AD45F88F
:10233800083D214601A8FFF7ECFF29463046FFF784
:10234800D7FF01A8FEF7CEF92046FEF7CBF93846AD
:10235800FDF7A1FE304603B0F0BD13B50B460446A9
:1023680003C88DE8030093E8030084E803009DE8B0
:10237800030083E8030002B010BD826810B50AB9F3
:1023880001F045FBC368BDE81040184708B5006870
:1023980000F11001FFF7F1FF08BD826810B50AB916
:1023A80001F035FBC368BDE81040184708B5006860
:1023B80000F11001FFF7F1FF08BD38B50023836075
:1023C8008B6804460D462BB102229847EB68E36000
:1023D800AB68A360204638BD2DE9F0414FF69C73E9
:1023E80004684FF0020086B0B1F904208B80002306
:1023F8000F688DF800300B60D4E84F1F994203D165
:10240800C4E8450F002DF7D102D08DF800106BE01D
:1024180014F10C051CBFE7602282BFF35F8F18BF61
:102428001F4601236370BFF35F8F04F10803002088
:1024380053E8006F43E80002002AF9D1BFF35F8F29
:10244800002E51D0FFF792FC20B129463046FFF705
:1024580094FF43E031466846FFF7AFFFE068B4F900
:10246800105008B102F00EFD04901020ADF8145081
:10247800FDF70FFE054630B34FF00008C0F808809E
:102488001820FDF706FE0446C0B1C0F808800146D2
:102498006846FFF762FF029BA268A360039B029253
:1024A800E268E360BDF814300392A3824FF69C7390
:1024B800ADF81430049BCDF8108023610D4B2C60CF
:1024C800EB600D4BAB600498FFF736FD6846FFF7ED
:1024D8000FF9002229460948FFF750FC3046FFF75C
:1024E80007F93046FDF7D7FD3846FFF725FD06B05A
:1024F800BDE8F08195230808F1250808B71F0808EA
:102508002DE9F04F8BB007AD4FF0000B064699460A
:1025180014200C230F4690469DF850A0C5F804B02F
:10252800C5F808B00793FDF7B4FD044638B180F844
:1025380000B080F801B0C0F804B0C0F808B00023BB
:10254800102003940493FDF7A4FD28B101234360F0
:102558008360234BC4600360224B049008200893D7
:10256800FDF797FD044628B1039B04A940F8043BF6
:10257800FFF7CFFE00955FFA8AF34A464146384690
:102588000994FFF761FCB8B9039B5B7803F0FF027D
:1025980093B94FF69C7305A903A80592ADF81830B6
:1025A800FFF71AFF0598FFF7C7FC05A80999FFF779
:1025B800B7FE06A8FEF796F8039B04A906A805939C
:1025C800FFF7A7FE05A93046FFF792FE06A8FEF71B
:1025D80089F804A8FEF786F830460BB0BDE8F08FFE
:1025E8007C5C080859270808022AF8B5044606D072
:1025F800032A17D0012A20D10B6803601DE0182098
:102608000E68FDF746FD054650B13146FFF7D5FE89
:102618003069B6F9147008B102F034FC2861AF8251
:1026280025600AE0046844B12069FFF785FC20466C
:10263800FFF75EF82046FDF72EFD0020F8BD38B5FF
:10264800002383608B6804460D462BB1022298470D
:10265800EB68E360AB68A360204638BD022A70B51A
:10266800044606D0032A11D0012A17D10B6803604B
:1026780014E014200E68FDF70CFD054620B1314624
:10268800FFF7DDFF337C2B74256007E004682CB16D
:102698002046FFF72DF82046FDF7FDFC002070BD11
:1026A800F0B50C46BFF35F8F87B0002350E8006F8A
:1026B80040E80032002AF9D1BFF35F8F002E3ED0E8
:1026C8001846FFF753FB074620B121463046FFF76F
:1026D80064FE2EE0314601A8FFF7B1FF23781020F1
:1026E8008DF81430FDF7D5FC0546D0B1876014206D
:1026F800FDF7CFFC044678B18760014601A8FFF7D3
:102708002CFE039BA268A360049B0392E268E3602B
:102718009DF81430049223740A4B2C60EB600A4B2A
:10272800AB6001A8FEF7E4FF002229460748FFF73F
:1027380025FB3046FEF7DCFF3046FDF7ACFC07B062
:10274800F0BD00BFB523080865260808B71F0808AC
:1027580030B5044685B00D4668461146FFF7E0FDE2
:102768007CB124B228460DB102F08CFB029002A97C
:102778006846ADF80C40FFF72FFE0298FFF7DCFB28
:102788001DE04FF0010200988DF80840D0E84F3F57
:10279800A34203D1C0E8412F0029F7D102D08DF818
:1027A80008300CE010F10C014FF0010318BF03735F
:1027B800BFF35F8F043000F8033CFFF771FF01A8F7
:1027C800FDF790FF05B030BD006800F0D4B810B533
:1027D8000446016002710AB1FFF7F6FF204610BDFA
:1027E80038B504460D4601F0A7F82A4601462046AA
:1027F800FFF7EDFF204638BD006800F0C5B810B5FA
:10280800037904460BB1FFF7F7FF204610BDF8B572
:1028180004460F4616461D46FFF7D6FF20683621A8
:1028280000F09BF82068394603689B6898470121A7
:10283800206800F095F8022236210123206800F074
:1028480083F8206803685B699847307020680368DC
:102858005B69984728702046BDE8F840FFF7CCBF71
:1028680013B5002202AB03F8012D8DF806200421D0
:102878000DF10602FFF7CBFF9DF8070001F064FB9E
:102888000022084B01F0C6FB01F0FEFD04469DF84E
:10289800060001F003FF0146204601F04BFE02B09E
:1028A80010BD00BF0000703F7047F8B506461546DA
:1028B8000C468F18BC4206D0336814F8011B9B687D
:1028C80030469847F6E72846F8BD0022007CFFF717
:1028D80055B90021007CFFF759B90021007CFFF7AA
:1028E8005DB90021007CFFF761B90021007CFFF78A
:1028F80065B910B50446FDF7CEFB204610BD0000B3
:1029080010B5044608464FF47A73A360044B0021BF
:10291800207461602360FFF761F9204610BD00BF95
:10292800985C080800231A461946007CFFF706B988
:1029380013B50024007C0094FFF708F9C0B202B078
:1029480010BD0123FFF7F4BFDBB2D2B2C9B2FFF763
:10295800EFBF0022007CFFF701B9C9B2FFF7F9BF4A
:102968000022007CFFF702B90121FFF7F9BF00211F
:10297800007CFFF72BB908B50021007CFFF736F97A
:10298800B0FA80F0400908BD08B50021007CFFF7C7
:1029980035F9B0FA80F0400908BD004707282DE94D
:1029A800FF4105460F4690461E464FF0000419D0D9
:1029B800FFF7B4F8A6424FF0040303948DF80C30E7
:1029C800A2BF9DF8283003AC8DF80E30284600943D
:1029D80043463A460549A8BF8DF80D60FFF796F8BB
:1029E800012000E0204604B0BDE8F081A3290808D2
:1029F800072870B505460FD0FFF790F8074B53F836
:102A080025601C462EB13046FEF772FE3046FDF7B3
:102A180042FB002344F8253070BD00BF4406002067
:102A2800704710B50446FDF736FB204610BDF8B5D3
:102A38000F4600F10806051D002416F8011D0A229C
:102A4800384600F0D8FAAE42044407D0002CF4D03F
:102A58002E21384600F08CFA0444EEE72046F8BDF3
:102A6800024A026000224260704700BFC05C08084A
:102A7800024A02600A684260704700BFC05C0808EA
:102A8800014A416002607047C05C080810B59DF8B3
:102A9800084044EA032343EA024242EA01614160F2
:102AA80010BD000037B5044D05609DF8185000951D
:102AB800FFF7ECFF03B030BDC05C0808014A024BC9
:102AC8001A6070477E5D08080007002000231A4638
:102AD8004068FFF7D9B9002202214068FFF7E4B93E
:102AE800002211464068FFF7D7B900221146406816
:102AF800FFF7E2B900231A4619464068FFF7E4B920
:102B080000231A4619464068FFF7E6B9002281F00B
:102B180001014068FFF7E8B900224068FFF7F4B9FF
:102B2800002211464068FFF7F7B9002211464068B5
:102B3800FFF7E2B9F0B5174687B0054604A8FFF7D6
:102B48008FFF002606AC384644F80C6D02F0B5F944
:102B58000A4B009681B25B6822463846FEF746FF6C
:102B680020B131462846FFF78BFF03E0214628466F
:102B7800FFF77EFF284607B0F0BD00BFE80500203C
:102B8800024B034A1A6000225A607047040700206B
:102B9800B05D080808B500F0CFFEFFF7E8FE18B9E9
:102BA80000F0CAFEFFF7BEFE00F0C6FEBDE8084012
:102BB800FFF7DDBE08B500F0BFFEBDE80840FFF72F
:102BC800DABE10B50446017009B1FFF7F3FF2046DD
:102BD80010BD08B500F0B0FEBDE80840FFF7D4BE50
:102BE80010B5037804460BB1FFF7F3FF204610BD7C
:102BF80010B504460068FFF7ECFF204610BD37B556
:102C080002AC0D4644F8040DFFF7D4FF00F094FE23
:102C18006B21FFF7A2FE00F08FFE036829469B6830
:102C2800984700F089FE0121FFF79AFE00F084FE24
:102C380001231A466B21FFF787FE00F07DFE03682B
:102C48005B69984705462046FFF7D2FFE8B203B014
:102C580030BD73B502AC15460E4644F8040DFFF7B7
:102C6800A9FF00F069FE6B21FFF777FE00F064FE14
:102C7800036831469B68984700F05EFE0368294662
:102C88009B68984700F058FE0121FFF769FE20462F
:102C9800FFF7AEFF02B070BD37B504460D46019090
:102CA800FFF788FF00212046FFF7A9FF41F25813DC
:102CB8009D4200F087025BD020D841F218039D4264
:102CC8004DD00CD840F678739D4242D040F6C87378
:102CD8009D4241D040F628739D4260D159E041F2AF
:102CE800B8039D423ED041F208139D423DD041F2C7
:102CF80068039D4253D142F020024AE041F29823F2
:102D08009D423ED00ED841F2F8139D4233D041F295
:102D180048239D4232D041F2A8139D423FD142F050
:102D2800400236E041F238339D422DD006D841F2B8
:102D3800E8239D4233D142F060022AE041F2883311
:102D48009D4224D041F2D8339D4228D142F07802E6
:102D58001FE042F008021CE042F0100219E042F0C5
:102D6800180216E042F0280213E042F0300210E0A8
:102D780042F038020DE042F048020AE042F0500208
:102D880007E042F0580204E042F0680201E042F035
:102D9800700220460021FFF75CFF012400E00024B8
:102DA80001A8FFF725FF204603B030BD37B504461C
:102DB8000D460190FFF7FEFE00212046FFF71FFF9A
:102DC800B5F5617F00F0F80223D007D8962D1AD008
:102DD800B5F5FA7F1AD0642D29D122E040F2DC53F0
:102DE8009D4219D005D8B5F5966F20D142F004025E
:102DF80017E0B5F5FA6F12D040F6B8339D4216D1F8
:102E080042F007020DE042F001020AE042F002023D
:102E180007E042F0030204E042F0050201E042F05C
:102E2800060220460021FFF714FF012400E00024D9
:102E380001A8FFF7DDFE204603B030BDF7B50C460C
:102E4800174605461E460190FFF7B4FE002C0CBF3E
:102E58000024802417B144F04004E4B20EB144F0D9
:102E680020049DF820300BB144F010049DF8243064
:102E78000BB144F008049DF828300BB144F0040469
:102E880002212846FFF7BBFE00F00102224302217F
:102E98002846FFF7DEFE01A8FFF7AAFE012003B0CF
:102EA800F0BD37B504460D460190FFF783FE0421B7
:102EB8002046FFF7A4FE41F210039D4200F00302F2
:102EC80006D041F270039D420AD142F0B00201E0FF
:102ED80042F0980220460421FFF7BBFE012400E0DF
:102EE800002401A8FFF784FE204603B030BD37B5A3
:102EF800054602AC44F8040DFFF75CFE05212846A0
:102F0800FFF77DFE052100F0CE022846FFF7A1FE5F
:102F18002046FFF76DFE012003B030BDF8B5064628
:102F28000D468F180024BD420CD0336815F8011BDC
:102F38009B6830469847002801DB0444F3E7002CDF
:102F480008BF04462046F8BD70B505460C4608463D
:102F580049B101F0B2FF2B68024621462846BDE878
:102F68007040DB68184770BD08B5FFF7EDFF08BD76
:102F780003689B68184738B50D210546FFF7F8FF29
:102F88000A2104462846FFF7F3FF204438BD38B528
:102F98000546FFF7D9FF04462846FFF7ECFF204413
:102FA80038BD012A98BF0A2230B50B468BB00021E4
:102FB8008DF824100DF12304B3FBF2F505FB123351
:102FC800DBB2092B94BF30333733DBB2214604F828
:102FD80001392B46002DEFD1FFF7B6FF0BB030BDFE
:102FE80010B422B90368C9B29B6810BC1847D2B2A2
:102FF80010BCFFF7D6BFFFF7F3BF2DE9F041074636
:103008000E4615462AB9BDE8F0410368C9B29B6867
:1030180018470A2A02D1002901DA04E0D2B2BDE831
:10302800F041FFF7BEBF2D21FFF7A2FF2A46044655
:1030380071423846FFF7B5FF2044BDE8F081FFF73D
:10304800DCBF10B50446FEF753FB204610BD000058
:10305800034800238360034A034900F0D3BC00BF40
:103068000C070020E80400204B300808704710B512
:103078000446FDF710F8204610BD000070B5044660
:103088000E46074B0025036040F80C5FFEF7C6FCB0
:1030980030462671FEF7BAFDA560204670BD00BF18
:1030A800E45D08080079FEF7B9BD10B5044600686C
:1030B800FEF742FF204610BD10B50446006808B16F
:1030C800FEF73AFF00232360A360636010BD38B5A4
:1030D80004460D4600680131FEF736FF10B184E85A
:1030E8002100012038BD10B50368044613B14368B8
:1030F8008B4207D22046FFF7EAFF20B1A3680BB93D
:1031080022681370012010BD70B50E4611460446A2
:103118001546FFF7E8FF18B92046FFF7CDFF09E08D
:103128002A463146A560206801F044FE2268A3685B
:103138000021D154204670BD38B5002304460360F1
:103148004360836003730D4639B1084601F0B5FE4C
:10315800294602462046FFF7D7FF204638BD884259
:1031680010B50B46044607D0096819B19A68FFF7ED
:10317800CBFF01E0FFF7A0FF204610BD10B50446C5
:1031880000230360436083600373FFF7E8FF204672
:1031980010BD08B582680B4612B919B9012008BDDF
:1031A80011B90368187802E0006801F059FEB0FA16
:1031B80080F0400908BD70B50E469AB191B1856896
:1031C8009D4202D800230B7070BD541EED1AAC420C
:1031D80028BF2C46016822461944304601F08AFE71
:1031E8000023335570BD014600228C20FEF726BC13
:1031F8000020FFF7F8BF000010B504460846114646
:103208001A460023FEF7A2FD064B00221A704FF65D
:10321800FF7258809A801A689B882260A380204693
:1032280010BD00BF1C07002010B5002404704480A6
:103238004FF6FF740029848007DD0139994209D2CD
:1032480032F811308380012301E002D10223037098
:1032580010BD418010BD000070B50D46164686B001
:103268001A46002302930C9B044601930B9B31469C
:10327800009328460A9BFEF7A5FD33462A460146D9
:1032880004A8FFF7D1FF064B0498BDF81420186076
:1032980020469A801A689B882260A38006B070BD79
:1032A8001C0700204FF6FF72034B0020187058804F
:1032B8009A80FEF73BBD00BF1C070020F0B5144BF9
:1032C800144F1E68144B064418683B6806449E4217
:1032D8008BB01BD00AA840F8286D01F073FC044697
:1032E800436901AD03F26C7343610FCC0FC50FCC7A
:1032F8000FC5D4F800E0094CC5F800E001AD0FCDCA
:103308000FC40FCD0FC43E60C4F800E00BB0F0BD91
:1033180054070020500700204C07002024070020F5
:1033280008B50020FEF7A0FD28B1FEF77DFD80F06E
:103338000100C0B208BD012008BD000008B5FFF7B4
:10334800BDFF014B986808BD2407002008B5FFF7AA
:10335800B5FF014BD86808BD2407002010B50949FE
:10336800044601F08DFB60B90749204601F0A6FB31
:1033780038B90649204601F0E5F901F0A9FB044BEC
:10338800186010BD000040C10000604100006145A8
:103398005407002037B50E4B04461B6802A8194491
:1033A8000C4B1B68194440F8041D01F00BFC01F09C
:1033B800B5FB054601F081FD0023284400F8013CD7
:1033C80029462046FFF7B8FE204603B030BD00BFAF
:1033D800540700204C07002010B50020FEF756FBCC
:1033E800044668B9FEF79AFC01280BD12046FEF77F
:1033F800CDFC38B9FFF794FF30B9FEF7FDFCF9E7CB
:10340800012010BD002010BDFFF78AFF0020FEF745
:103418003DFB003018BF012010BD08B5FFF7DCFFE9
:10342800BDE80840FEF72ABB08B5FFF7F6FFFFF72F
:1034380045FF014B986808BD2407002008B5FFF731
:10344800ECFFFFF73BFF014B586808BD240700203D
:1034580008B5FFF7E2FFFFF731FF014BD86808BD59
:1034680024070020024B1A68024B1A60704700BFFD
:103478003004002048070020704741747047007CE2
:10348800FEF70CBC007CFEF7E1BB007CFEF7EEBB50
:10349800007CFEF7E3BB007CFEF7F0BB10B50446EA
:1034A800FCF7F9FD204610BD70B5457C04460E4674
:1034B80025B9007CFEF7F2FB002805DD3146207CAB
:1034C800BDE87040FEF7BABB284670BD10B504468B
:1034D80008461146002262604FF47A72A260054ADB
:1034E80020742260012262741A46FEF79FFB204670
:1034F80010BD00BF1C5E0808007CFEF7C7BB0000BB
:1035080038B50C4D296811F0010411D12846FCF793
:10351800C4FD68B1084A2146084B0948FFF7D6FFA1
:103528002846FCF7BFFD074A0749054800F06AFA34
:10353800034838BDF0070020F40700206C0700207E
:1035480058070020E80400208134080841747047B7
:1035580070470021007CFEF7C1BB0121007CFEF70B
:10356800BDBB007CFEF7B2BB007CFEF7A7BB38B53D
:103578000446007C0D46FEF7A9FB002801DC607CB0
:1035880020B12946207CFEF7B1FB012038BD007C24
:10359800FEF7B4BB10B50446FCF77DFD204610BD10
:1035A80010B50446002363604FF47A73A360054B9B
:1035B800084623600123217463741146FEF776FBE5
:1035C800204610BD4C5E080810B5044614220021A0
:1035D80001F016FC054B20466360054BE36040F2A2
:1035E800011323818123238210BD00BFFD08002021
:1035F8007C08002030B50E4D87B001A8FFF7E4FF26
:10360800296811F0010410D12846FCF746FD60B185
:1036180001AA21460748FFF7C3FF2846FCF742FDE9
:10362800054A0649034800F0EDF9024807B030BDE5
:1036380078080020000A0020E8040020593508080E
:1036480010B504461422002101F0DAFB054B204690
:103658006360054BE36040F20113238181232382D9
:1036680010BD00BFB00A0020180A002010B50E4C8B
:1036780086B001A8FFF7E4FF2368DB0710D42046D3
:10368800FCF70BFD60B101AA01210848FFF788FF8C
:103698002046FCF707FD064A0649044800F0B2F93F
:1036A800024806B010BD00BF140A00209C0A002082
:1036B800E80400205935080808B5184B33B1FFF75E
:1036C80099FF03681B69984700281EDC144B33B127
:1036D800FFF716FF03681B699847002818DC114B91
:1036E8000BB1AFF30080104B0BB1AFF300800F4B61
:1036F8000BB1AFF300800E4B7BB1FFF7B7FF036848
:103708001B699847002806DC08BDAFF30080DDE799
:10371800AFF30080E3E7AFF3008008BD00000000CE
:103728000000000000000000000000000000000091
:103738000000000008B5FFF7BFFFFEF797F9014B3F
:10374800186008BDBC0B00200248034A0349121A3E
:1037580001F030BB004002400C42024020610808E2
:1037680007B5002300931A466FF07701FEF720FB98
:1037780003B05DF804FB000007B543880A2B08D0A6
:10378800502B09D1094B1B683BB103B05DF804EB22
:103798001847FFF7E5FF06E0002300931A466FF08D
:1037A8007701FEF705FB03B05DF804FBB40B0020BE
:1037B80038B5104C104D2368AB42104B0CBF01229A
:1037C80000221A7002D0FFF7BFFF2560FEF746F906
:1037D800044601F01DFB0A4B13B12046AFF30080ED
:1037E80000210748FEF748FBBDE83840002105489E
:1037F800FEF7D4BA084202401E1C279AB80B0020D4
:10380800000000008137080810B504460F48FFF78C
:1038180049FC28B1A4F10D03022B01D8002010BDEA
:1038280000F06AF8FFF7A3F808B1012CF6D9FFF702
:1038380067FEFFF761FE18B1A4F11203012BEDD961
:103848002E2C8CBF0020012010BD00BFF80B0020DB
:103858002E2838B504460D460AD8FF2908D0FFF7A8
:10386800D3FF28B129462046BDE83840FEF72EB9D7
:1038780038BD38B504460D46FEF730F9FF2810D09C
:10388800062804D84D2323FA00F0C30709D420469C
:10389800FFF7BAFF28B129462046BDE83840FEF7B1
:1038A80025B938BD10B50446FEF718F90438C0B27A
:1038B800012808D92046FFF7A7FF20B12046BDE818
:1038C8001040FEF71BB9002010BD10B504460928AA
:1038D8009CBF0A34A4B22046FFF796FF50B10321DB
:1038E8002046FEF7EBF8032804D12046BDE8104037
:1038F800FEF71CB9002010BD38B50B4D296811F032
:1039080001040FD12846FCF7C8FB58B121460748E7
:10391800FEF7F6FF2846FCF7C5FB054A05490348AC
:1039280000F070F8014838BDC00B0020D80B00200B
:10393800E8040020B128080810B50B4C2368DB0701
:103948000FD42046FCF7A9FB58B102210748FEF71F
:10395800D7FF2046FCF7A6FB054A0649034800F0B6
:1039680051F8024810BD00BFEC0B0020C40B00202A
:10397800E8040020B128080813B5084C00231A46AB
:10398800194600932046FFF78DF82046044A05495A
:1039980002B0BDE8104000F035B800BFF00B0020C1
:1039A800E8040020292A080870B5114E114D124C60
:1039B80000213046FFF762FB3046104E2A4621466A
:1039C80000F020F801213046FFF758FB30460C4E36
:1039D8002A46214600F016F802213046FFF74EFB32
:1039E8002A4621463046BDE8704000F00BB800BFBB
:1039F800F80B0020E804002075300808080C0020A7
:103A0800180C00200B460146184601F0C7B808B547
:103A1800FEF7BAFA244B1A68D0075CBF01221A6075
:103A2800224B1A68D1075CBF01221A60204B1A6822
:103A3800D2075CBF01221A601E4B1A68D0075CBF10
:103A480001221A601C4B1A68D1075CBF01221A6058
:103A58001A4B1A68D2075CBF01221A60184B1A6801
:103A6800D0075CBF01221A60164B1A68D1075CBFE9
:103A780001221A60144B1A68D2075CBF01221A602F
:103A8800124B1A68D0075CBF01221A60104B1A68E3
:103A9800D1075CBF01221A600E4B1A68D2075CBFBF
:103AA80001221A60704700BF540C0020500C0020FF
:103AB8004C0C0020480C0020440C0020400C002036
:103AC8003C0C0020380C0020340C0020300C002066
:103AD8002C0C0020280C0020184B1A68D1075CBF5A
:103AE80001221A60164B1A68D2075CBF01221A60BD
:103AF800144B1A68D0075CBF01221A60124B1A686F
:103B0800D1075CBF01221A60104B1A68D2075CBF4C
:103B180001221A600E4B1A68D0075CBF01221A6096
:103B28000C4B1A68D1075CBF01221A600A4B1A684D
:103B3800D2075CBF01221A60704700BF740C0020D6
:103B4800700C00206C0C0020680C0020640C002015
:103B5800600C00205C0C0020580C0020184B1A68E0
:103B6800D1075CBF01221A60164B1A68D2075CBFE6
:103B780001221A60144B1A68D0075CBF01221A6030
:103B8800124B1A68D1075CBF01221A60104B1A68E1
:103B9800D2075CBF01221A600E4B1A68D0075CBFBF
:103BA80001221A600C4B1A68D1075CBF01221A6007
:103BB8000A4B1A68D2075CBF01221A60704700BF1F
:103BC800940C0020900C00208C0C0020880C002005
:103BD800840C0020800C00207C0C0020780C002035
:103BE800244B1A68D0075CBF01221A60224B1A685E
:103BF800D1075CBF01221A60204B1A68D2075CBF4C
:103C080001221A601E4B1A68D0075CBF01221A6095
:103C18001C4B1A68D1075CBF01221A601A4B1A683C
:103C2800D2075CBF01221A60184B1A68D0075CBF24
:103C380001221A60164B1A68D1075CBF01221A606C
:103C4800144B1A68D2075CBF01221A60124B1A681B
:103C5800D0075CBF01221A60104B1A68D1075CBFFD
:103C680001221A600E4B1A68D2075CBF01221A6043
:103C7800704700BFC40C0020C00C0020BC0C002002
:103C8800B80C0020B40C0020B00C0020AC0C0020B4
:103C9800A80C0020A40C0020A00C00209C0C0020E4
:103CA800980C002081F0004102E000BF83F000433F
:103CB80030B54FEA41044FEA430594EA050F08BFBF
:103CC80090EA020F1FBF54EA000C55EA020C7FEA83
:103CD800645C7FEA655C00F0E2804FEA5454D4EB00
:103CE8005555B8BF6D420CDD2C4480EA020281EACA
:103CF800030382EA000083EA010180EA020281EA02
:103D08000303362D88BF30BD11F0004F4FEA013153
:103D18004FF4801C4CEA113102D0404261EB410162
:103D280013F0004F4FEA03334CEA133302D05242E8
:103D380063EB430394EA050F00F0A780A4F10104A4
:103D4800D5F1200E0DDB02FA0EFC22FA05F28018DE
:103D580041F1000103FA0EF2801843FA05F35941C4
:103D68000EE0A5F120050EF1200E012A03FA0EFC43
:103D780028BF4CF0020C43FA05F3C01851EBE3716D
:103D880001F0004507D54FF0000EDCF1000C7EEB8A
:103D980000006EEB0101B1F5801F1BD3B1F5001FC8
:103DA8000CD349085FEA30004FEA3C0C04F10104E7
:103DB8004FEA445212F5800F80F09A80BCF1004F10
:103DC80008BF5FEA500C50F1000041EB045141EA92
:103DD800050130BD5FEA4C0C404141EB010111F493
:103DE800801FA4F10104E9D191F0000F04BF01463E
:103DF8000020B1FA81F308BF2033A3F10B03B3F11C
:103E080020020CDA0C3208DD02F1140CC2F10C02AB
:103E180001FA0CF021FA02F10CE002F11402D8BF09
:103E2800C2F1200C01FA02F120FA0CFCDCBF41EAD5
:103E38000C019040E41AA2BF01EB0451294330BDA4
:103E48006FEA04041F3C1CDA0C340EDC04F1140481
:103E5800C4F1200220FA04F001FA02F340EA030058
:103E680021FA04F345EA030130BDC4F10C04C4F19E
:103E7800200220FA02F001FA04F340EA030029467E
:103E880030BD21FA04F0294630BD94F0000F83F4C8
:103E9800801306BF81F480110134013D4EE77FEAAB
:103EA800645C18BF7FEA655C29D094EA050F08BFF7
:103EB80090EA020F05D054EA000C04BF19461046D8
:103EC80030BD91EA030F1EBF0021002030BD5FEA1C
:103ED800545C05D14000494128BF41F0004130BD44
:103EE80014F580043CBF01F5801130BD01F0004598
:103EF80045F0FE4141F470014FF0000030BD7FEA0B
:103F0800645C1ABF194610467FEA655C1CBF0B4605
:103F1800024650EA013406BF52EA033591EA030F1C
:103F280041F4002130BD00BF90F0000F04BF002114
:103F3800704730B54FF4806404F132044FF0000547
:103F48004FF0000150E700BF90F0000F04BF0021C0
:103F5800704730B54FF4806404F1320410F0004526
:103F680048BF40424FF000013EE700BF42004FEA21
:103F7800E2014FEA31014FEA02701FBF12F07F439E
:103F880093F07F4F81F06051704792F0000F14BF9B
:103F980093F07F4F704730B54FF4607401F00045DF
:103FA80021F0004120E700BF50EA010208BF704736
:103FB80030B54FF000050AE050EA010208BF70472B
:103FC80030B511F0004502D5404261EB41014FF494
:103FD800806404F132045FEA915C3FF4DCAE4FF098
:103FE80003025FEADC0C18BF03325FEADC0C18BF7F
:103FF800033202EBDC02C2F1200300FA03FC20FAD0
:1040080002F001FA03FE40EA0E0021FA02F114441C
:10401800C1E600BF70B54FF0FF0C4CF4E06C1CEA31
:1040280011541DBF1CEA135594EA0C0F95EA0C0FA6
:1040380000F0DEF82C4481EA030621EA4C5123EA19
:104048004C5350EA013518BF52EA033541F4801148
:1040580043F4801338D0A0FB02CE4FF00005E1FBFB
:1040680002E506F00042E0FB03E54FF00006E1FB45
:1040780003569CF0000F18BF4EF0010EA4F1FF0488
:10408800B6F5007F64F5407404D25FEA4E0E6D41C8
:1040980046EB060642EAC62141EA55514FEAC520D9
:1040A80040EA5E504FEACE2EB4F1FD0C88BFBCF555
:1040B800E06F1ED8BEF1004F08BF5FEA500E50F106
:1040C800000041EB045170BD06F0004646EA0101CC
:1040D80040EA020081EA0301B4EB5C04C2BFD4EBFE
:1040E8000C0541EA045170BD41F480114FF0000EF7
:1040F800013C00F3AB8014F1360FDEBF002001F065
:10410800004170BDC4F10004203C35DA0C341BDCDE
:1041180004F11404C4F1200500FA05F320FA04F0B0
:1041280001FA05F240EA020001F0004221F00041E4
:1041380010EBD37021FA04F642EB06015EEA430E57
:1041480008BF20EAD37070BDC4F10C04C4F1200587
:1041580000FA04F320FA05F001FA04F240EA02003A
:1041680001F0004110EBD37041F100015EEA430E0B
:1041780008BF20EAD37070BDC4F1200500FA05F22B
:104188004EEA020E20FA04F301FA05F243EA0203AA
:1041980021FA04F001F0004121FA04F220EA0200B9
:1041A80000EBD3705EEA430E08BF20EAD37070BDFF
:1041B80094F0000F0FD101F00046400041EB0101DF
:1041C80011F4801F08BF013CF7D041EA060195F0C1
:1041D800000F18BF704703F00046520043EB03037B
:1041E80013F4801F08BF013DF7D043EA0603704768
:1041F80094EA0C0F0CEA135518BF95EA0C0F0CD073
:1042080050EA410618BF52EA4306D1D181EA0301B8
:1042180001F000414FF0000070BD50EA410606BFB2
:104228001046194652EA430619D094EA0C0F02D1F7
:1042380050EA013613D195EA0C0F05D152EA03363C
:104248001CBF104619460AD181EA030101F000415A
:1042580041F0FE4141F470014FF0000070BD41F0A3
:10426800FE4141F4780170BD70B54FF0FF0C4CF47D
:10427800E06C1CEA11541DBF1CEA135594EA0C0F9C
:1042880095EA0C0F00F0A7F8A4EB050481EA030EE9
:1042980052EA03354FEA013100F088804FEA0333D0
:1042A8004FF0805545EA131343EA12634FEA02229E
:1042B80045EA111545EA10654FEA00260EF000415F
:1042C8009D4208BF964244F1FD0404F5407402D2B1
:1042D8005B084FEA3202B61A65EB03055B084FEA42
:1042E80032024FF480104FF4002CB6EB020E75EB3F
:1042F800030E22BFB61A754640EA0C005B084FEA67
:104308003202B6EB020E75EB030E22BFB61A7546E3
:1043180040EA5C005B084FEA3202B6EB020E75EB2E
:10432800030E22BFB61A754640EA9C005B084FEAA6
:104338003202B6EB020E75EB030E22BFB61A7546B3
:1043480040EADC0055EA060E18D04FEA051545EAA2
:1043580016754FEA06164FEAC30343EA52734FEA4B
:10436800C2025FEA1C1CC0D111F4801F0BD141EAC4
:1043780000014FF000004FF0004CB6E711F4801F29
:1043880004BF01430020B4F1FD0C88BFBCF5E06F09
:104398003FF6AFAEB5EB030C04BFB6EB020C5FEA19
:1043A800500C50F1000041EB045170BD0EF0004E6E
:1043B8004EEA113114EB5C04C2BFD4EB0C0541EAA0
:1043C800045170BD41F480114FF0000E013C90E69D
:1043D80045EA060E8DE60CEA135594EA0C0F08BF61
:1043E80095EA0C0F3FF43BAF94EA0C0F0AD150EA60
:1043F80001347FF434AF95EA0C0F7FF425AF1046F3
:1044080019462CE795EA0C0F06D152EA03353FF41A
:10441800FDAE1046194622E750EA410618BF52EA97
:1044280043067FF4C5AE50EA41047FF40DAF52EA6B
:1044380043057FF4EBAE12E74FEA410212F5001292
:1044480015D211D56FF47873B3EB625212D94FEAD3
:10445800C12343F0004343EA505311F0004F23FABD
:1044680002F018BF404270474FF00000704750EA12
:10447800013005D111F0004008BF6FF000407047CF
:104488004FF00000704700BF4FEA4102B2F1E0432D
:1044980024BFB3F5001CDCF1FE5C0DD901F0004C23
:1044A8004FEAC0024CEA5070B2F1004F40EB830073
:1044B80008BF20F00100704711F0804F21D113F19F
:1044C8003872BCBF01F00040704741F480114FEAD8
:1044D8005252C2F11802C2F1200C10FA0CF320FA61
:1044E80002F018BF40F001004FEAC1234FEAD3237E
:1044F80003FA0CFC40EA0C0023FA02F34FEA4303E8
:10450800CCE77FEA625307D150EA01331EBF4FF070
:10451800FE4040F44000704701F0004040F0FE408B
:1045280040F40000704700BF80F0004002E000BF88
:1045380081F0004142001FBF5FEA410392EA030F86
:104548007FEA226C7FEA236C6AD04FEA1262D2EBD0
:104558001363C1BFD218414048404140B8BF5B42D5
:10456800192B88BF704710F0004F40F4000020F06E
:104578007F4018BF404211F0004F41F4000121F084
:104588007F4118BF494292EA030F3FD0A2F10102CE
:1045980041FA03FC10EB0C00C3F1200301FA03F10C
:1045A80000F0004302D5494260EB4000B0F5000F2F
:1045B80013D3B0F1807F06D340084FEA310102F1EE
:1045C8000102FE2A51D2B1F1004F40EBC25008BFA0
:1045D80020F0010040EA03007047490040EB00006A
:1045E80010F4000FA2F10102EDD1B0FA80FCACF199
:1045F800080CB2EB0C0200FA0CF0AABF00EBC25098
:1046080052421843BCBFD0401843704792F0000F85
:1046180081F4000106BF80F400000132013BB5E7D8
:104628004FEA41037FEA226C18BF7FEA236C21D04E
:1046380092EA030F04D092F0000F08BF08467047B3
:1046480090EA010F1CBF0020704712F07F4F04D181
:10465800400028BF40F00040704712F100723CBF94
:1046680000F50000704700F0004343F0FE4040F4BE
:10467800000070477FEA226216BF08467FEA23637C
:104688000146420206BF5FEA412390EA010F40F467
:10469800800070474FF0000304E000BF10F00043B3
:1046A80048BF40425FEA000C08BF704743F096439A
:1046B80001464FF000001CE050EA010208BF7047B5
:1046C8004FF000030AE000BF50EA010208BF70473C
:1046D80011F0004302D5404261EB41015FEA010C51
:1046E80002BF84460146002043F0B64308BFA3F149
:1046F8008053A3F50003BCFA8CF2083AA3EBC2532B
:1047080010DB01FA02FC634400FA02FCC2F1200249
:10471800BCF1004F20FA02F243EB020008BF20F080
:104728000100704702F1200201FA02FCC2F12002E6
:1047380050EA4C0021FA02F243EB020008BF20EADB
:10474800DC7070474FF0FF0C1CEAD0521EBF1CEA09
:10475800D15392EA0C0F93EA0C0F6FD01A4480EAF7
:10476800010C400218BF5FEA41211ED04FF00063E0
:1047780043EA501043EA5111A0FB01310CF000400C
:10478800B1F5000F3EBF490041EAD3715B0040EA32
:10479800010062F17F02FD2A1DD8B3F1004F40EB02
:1047A800C25008BF20F00100704790F0000F0CF0D5
:1047B800004C08BF49024CEA502040EA51207F3A99
:1047C800C2BFD2F1FF0340EAC250704740F4000074
:1047D8004FF00003013A5DDC12F1190FDCBF00F065
:1047E80000407047C2F10002410021FA02F1C2F113
:1047F800200200FA02FC5FEA310040F1000053EAAF
:104808004C0308BF20EADC70704792F0000F00F0FC
:10481800004C02BF400010F4000F013AF9D040EA02
:104828000C0093F0000F01F0004C02BF490011F496
:10483800000F013BF9D041EA0C018FE70CEAD15394
:1048480092EA0C0F18BF93EA0C0F0AD030F0004C14
:1048580018BF31F0004CD8D180EA010000F00040C8
:10486800704790F0000F17BF90F0004F084691F086
:10487800000F91F0004F14D092EA0C0F01D14202C0
:104888000FD193EA0C0F03D14B0218BF084608D189
:1048980080EA010000F0004040F0FE4040F40000D3
:1048A800704740F0FE4040F4400070474FF0FF0C66
:1048B8001CEAD0521EBF1CEAD15392EA0C0F93EAAD
:1048C8000C0F69D0A2EB030280EA010C49024FEAFF
:1048D800402037D04FF0805343EA111143EA1013B8
:1048E8000CF000408B4238BF5B0042F17D024FF470
:1048F800000C8B4224BF5B1A40EA0C00B3EB510F4B
:1049080024BFA3EB510340EA5C00B3EB910F24BF33
:10491800A3EB910340EA9C00B3EBD10F24BFA3EBB8
:10492800D10340EADC001B0118BF5FEA1C1CE0D180
:10493800FD2A3FF650AF8B4240EBC25008BF20F033
:10494800010070470CF0004C4CEA50207F32C2BF87
:10495800D2F1FF0340EAC250704740F400004FF024
:104968000003013A37E792F0000F00F0004C02BF55
:10497800400010F4000F013AF9D040EA0C0093F01F
:10498800000F01F0004C02BF490011F4000F013B79
:10499800F9D041EA0C0195E70CEAD15392EA0C0FE1
:1049A80008D142027FF47DAF93EA0C0F7FF470AF19
:1049B800084676E793EA0C0F04D14B023FF44CAF5C
:1049C80008466EE730F0004C18BF31F0004CCAD1F1
:1049D80030F000427FF45CAF31F000437FF43CAF2D
:1049E8005FE700BF4FF0FF3C06E000BF4FF0010C4F
:1049F80002E000BF4FF0010C4DF804CD4FEA400231
:104A08004FEA41037FEA226C18BF7FEA236C11D07A
:104A180001B052EA530C18BF90EA010F58BFB2EB2D
:104A2800030088BFC81738BF6FEAE17018BF40F0AD
:104A3800010070477FEA226C02D15FEA402C05D161
:104A48007FEA236CE4D15FEA412CE1D05DF8040BE6
:104A5800704700BF844608466146FFE70FB5FFF779
:104A6800C9FF002848BF10F1000F0FBD4DF808ED31
:104A7800FFF7F4FF0CBF012000205DF808FB00BF22
:104A88004DF808EDFFF7EAFF34BF012000205DF87C
:104A980008FB00BF4DF808EDFFF7E0FF94BF0120C9
:104AA80000205DF808FB00BF4DF808EDFFF7D2FFC6
:104AB80094BF012000205DF808FB00BF4DF808ED09
:104AC800FFF7C8FF34BF012000205DF808FB00BFD6
:104AD8004FEA4002B2F1FE4F0FD34FF09E03B3EB03
:104AE80012620DD94FEA002343F0004310F0004F43
:104AF80023FA02F018BF404270474FF00000704799
:104B080012F1610F01D1420205D110F0004008BF37
:104B18006FF0004070474FF000007047094B70B5C8
:104B28001C680646256C3DB91A20FDF7FDF91A22C6
:104B38002064294600F064F9216C3046BDE87040D5
:104B480000F002B89804002010B50C46416986B000
:104B580001F26C71036982690491016803EB4303F4
:104B68000391416802EB4202029181680191C16898
:104B78002046009104490B4404490A440449FDF7BE
:104B8800EBF9204606B010BD895E0808745E080877
:104B9800AD5E08080A22002100F046BA10B5054C9F
:104BA80013462CB10A4601460220AFF3008010BD1F
:104BB800204610BD0000000008B5401AFFF7C4F9F0
:104BC80008BD000038B5074B05461C68E36B1BB9E8
:104BD8002420FDF7A9F9E063E16B2846BDE83840D9
:104BE80000F002B8980400202DE9F0410C468046F8
:104BF80000F020FD21460746404600F01FFD4669AB
:104C0800044606F26C76B30705D1642296FBF2F3EC
:104C180002FB13634BB94FF4C87596FBF5F305FB1C
:104C28001365B5FA85F35B0900E001235F4A302577
:104C380005FB032500F032FB00F032FB5C4B1B68E0
:104C4800F3B17B689E4205D13968D8F80030FA691B
:104C580041B90AE0304600F079FA0028F4D14FF063
:104C6800FF330DE0934208DB01E0934207DABA6BA9
:104C78009342ACBF0023012302E0002300E001239C
:104C88002362236A3C20012B0CBFF96B396A4FF46D
:104C9800616391FBF3F603FB161393FBF0F200FB41
:104CA800123061682368891AA2681B1A921B3B2B71
:104CB80023606160A26003DD013161603C3B04E078
:104CC800002B03DA013961603C33236063683B2BB6
:104CD80003DD0132A2603C3B04E0002B03DA013A19
:104CE800A2603C336360A368172B22DDE269183B9E
:104CF8000132E261A269A3600132062AC8BF00221C
:104D0800A261E26823690132E26055F823108A4201
:104D180046DD01330C2B08BF6369A2EB0102E26098
:104D280005BF013300222361226104BF6361E26190
:104D380036E0002B34DAE2691833013AE261A269FD
:104D4800A360013A48BF0622A261E268013AE26024
:104D580032BB2369013B01D423611DE00B2323618E
:104D680063695A1E12F0030F626103F26B7305D177
:104D7800642193FBF1F201FB12324AB94FF4C87176
:104D880093FBF1F201FB1233B3FA83F35B0900E002
:104D9800012303F5B673E361236955F82330E36013
:104DA80000F07DFA2046BDE8F08100BF34600808B5
:104DB800E40C002010B5431E0A44914204D011F8B7
:104DC800014B03F8014FF8E710BD884210B501EB1D
:104DD800020301D8421E0BE09842FBD28118D21A76
:104DE800D34204D013F8014D01F8014DF8E710BD86
:104DF800994204D011F8014B02F8014FF8E710BDB1
:104E080003460244934202D003F8011BFAE77047B5
:104E180038B5124B05461C68A36BD3B91820FDF7AB
:104E280083F843F20E33A06303804AF6CD33438000
:104E380041F2342383804EF26D63C3804DF6EC63F8
:104E48000381052343810B23838101220023C0E9C9
:104E58000423A36B00221D615A6138BD9804002009
:104E680010F8012B11F8013B012A28BF9A42F7D00C
:104E7800D01A7047034611F8012B03F8012B002ABA
:104E8800F9D17047024B0146186800F003B800BF1B
:104E98009804002070B5064608460C4600F00DF848
:104EA800451C29463046FDF777F8064618B12A46CC
:104EB8002146FFF77FFF304670BD034613F8012BEC
:104EC800002AFBD1181A0138704730B582B1451E47
:104ED800013915F8013F11F8014FA34206D1EC43FF
:104EE8001444E04201D0002BF3D11C46181B30BDFE
:104EF800104630BD034610B542B111F8014B013AD6
:104F080003F8014B002CF7D11A4400E010BD93427E
:104F180002D003F8014BFAE710BD00002DE9F04775
:104F28000F4680463F48D0F800903D4615F8014BA3
:104F380009EB0400407800F0080000F0FF0608B113
:104F48002F46F2E72D2C03D1BD1C7C78012603E007
:104F58002B2C04BF7C78BD1C13B1102B0AD15BE04D
:104F6800302C57D1287800F0DF0058284DD16C78C4
:104F780010230235002E14BF4FF0004C6FF0004C88
:104F8800BCFBF3FA0027384603FB1ACC09EB040EE6
:104F98009EF801E01EF0040F01D0303C0BE01EF03B
:104FA800030E1BD0BEF1010F0CBF4FF0370E4FF0B0
:104FB800570ECEEB0404A34210DDB7F1FF3F0AD031
:104FC800504506D801D1644503DC03FB00400127A6
:104FD80001E04FF0FF3715F8014BD7E77B1C0CD1E8
:104FE800002E4FF0220314BF4FF000406FF0004036
:104FF800C8F800302AB9BDE8F08706B1404272B15E
:1050080007B1691E1160BDE8F0873024002BB1D1CB
:105018000823AFE70A23ADE7302CA3D0AAE7BDE801
:10502800F08700BF3404002013460A4601460248B0
:105038000068FFF773BF00BF980400202DE9F04710
:105048000E4680463B48D0F80090354615F8014B8F
:1050580009EB0400407800F0080000F0FF0708B1F1
:105068002E46F2E72D2C03D1B51C7478012703E0F6
:105078002B2C04BF7478B51C13B1102B0AD153E044
:10508800302C4FD1287800F0DF00582845D16C78B3
:10509800102302354FF0FF3CBCFBF3FC03FB0CFA7A
:1050A80000266FEA0A0A304609EB040E9EF801E072
:1050B8001EF0040F01D0303C0BE01EF0030E1AD096
:1050C800BEF1010F0CBF4FF0370E4FF0570ECEEB6D
:1050D8000404A3420FDD002E08DB604506D801D189
:1050E800544503DC03FB0040012601E04FF0FF3686
:1050F80015F8014BD8E7002E07DA2223C8F800304C
:105108004FF0FF302AB9BDE8F08707B1404272B1CD
:1051180006B1691E1160BDE8F0873024002BB9D1B3
:105128000823B7E70A23B5E7302CABD0B2E7BDE8D0
:10513800F08700BF3404002013460A46014602489F
:105148000068FFF77BBF00BF980400202DE9F74FE8
:10515800044600F06FFA40F2B1739C4240F3968027
:1051680040F26D156FF4F663E318A4F2B2729B1067
:1051780005FB0235A4F26D726FF0630392FBF3F343
:105188006FF4C8622B44A5184FF4C87294FBF2F769
:1051980095FBF2F502FB17471D44642394FBF3F6D5
:1051A800B7FA87FE014603FB164600F13803019360
:1051B80004F0030344604FEA5E1E00934FF0070CAF
:1051C8000B7A4A2B0ED14B69009AEC1802B906B932
:1051D80027B93B2BD4BF0023012300E0002323443D
:1051E800013B3FE0442B02D14B692B443AE0009B42
:1051F8002BB9002E0CBFF0464FF0010800E0F04636
:10520800A946244B302202FB0838CC68A8F1040ACE
:105218000123A34204DA5AF804BF0133D944F8E75A
:1052280009F1040393FBFCFBCBEBCB0ACAEB030AA3
:105238004B69012CB8BF0124B3EB0A0A0B6904F1CE
:10524800804403F1FF3304F1FF3448BF0AF1070A31
:10525800C3EBC30358F824405344A34201DB073B84
:10526800FBE74B448C690C4A02FB03430C6A23445A
:1052780041F81C3F019B9942A2D1C369826B9342BA
:10528800ACBF002301230360012000E0002003B02D
:10529800BDE8F08F346008088051010070477047FE
:1052A800014B186800F002B8980400202DE9F04F6F
:1052B8008DB0074600F0BEF9B0490446384600F004
:1052C800B1F9AF4E054660B9AE4BAF4A1860AF4B67
:1052D8001860AF4B30681A605A60FCF72DFE3560D5
:1052E80048E1316879B93068FCF726FE2846FFF7AF
:1052F800E4FD411C3846FCF74FFE306048B12946B2
:10530800FFF7B8FD05E0FFF7ABFD002800F032819C
:10531800E9E72B780AAE3A2B08BF013533469D4A98
:105328009D492846FCF720FE002840F323810A9B6C
:10533800EF18EB5C2D2B03D101374FF0FF3503E05D
:105348002B2B08BF013701250DF1200A0DF11E0B8B
:105358004FF000080396CDF808A00196CDF800B0EC
:10536800334607AA8D493846ADF81E80ADF820802F
:10537800FCF7FAFD404540F3FD80BDF81E20BDF85E
:1053880020303C2101FB0233BDF81C204FF4616141
:1053980001FB02335D437F4B25627D4DDFF80892A8
:1053A8002B600A9B4A461F447B4933463846FCF724
:1053B800DBFD404508DC2B68226A6B60714B1A6084
:1053C800724BC3F80080D5E00A9BC5F80490FD181D
:1053D800FB5C2D2B03D101354FF0FF3703E02B2B5E
:1053E80008BF013501270023ADF81C30ADF81E3089
:1053F800ADF820300A930396CDF808A00196CDF8B1
:1054080000B0334607AA65492846FCF7ADFD0028D9
:1054180004DC236AA3F56163E3630EE0BDF81E2094
:10542800BDF820303C2101FB0233BDF81C204FF4AD
:10543800616101FB02335F43E76327460A9B4FF034
:1054480000091D442B782C2B08BF013595F80080E6
:10545800B8F14D0F26D10DF12603029309AB009345
:105468000396019633460DF122024D492846FCF772
:105478007BFD03287ED1BDF822104B1E0B2B79D85B
:10548800BDF82420531E042B74D8BDF82630062BF3
:1054980070D887F80880F9603A617B610A9B05EB50
:1054A80003082AE0B8F14A0F06BF434601354423F2
:1054B8000A220BA928460593FFF73EFEDDF82C804B
:1054C800ADF826004545059B14D14D23B9F1000FD1
:1054D80007D123720323E36002232361C4F81490E5
:1054E8000BE084F824300B23A3620123E36200233A
:1054F800236302E080B23B7278610223ADF81C306E
:105508000023ADF81E30ADF820300A9398F800302B
:105518002F2B0BD10396CDF808A00196CDF800B03B
:10552800334607AA1F494046FCF71EFDBDF81E205A
:10553800BDF820303C2101FB0233BDF81C204FF49C
:10554800616101FB0233BB610A9D09F10109B9F1EF
:10555800020F454407F11C077FF474AF6068FFF73A
:10556800F5FD226A074B1A60E36B9B1A074A18BFBE
:10557800012313600DB0BDE8F08F00BF94600808E8
:10558800E00C0020E80C002097600808E40C0020DC
:105598009C040020D30C00209B600808BE6008080B
:1055A800AA600808BD600808C80C00202DE9F84F5B
:1055B80007468B46904600F0D7F8194B1D689A4667
:1055C8003DB15C46234613F8012B42B13D2A1C46E7
:1055D800F8D1384600F0C9F80020BDE8F88FCBEBC9
:1055E8000404A94659F8040B0028F2D0224659466B
:1055F800FFF76BFC88B959F8043C1E191B5D3D2B5D
:105608000BD1DAF800303846ED1AAD10C8F8005062
:1056180000F0ABF8701CBDE8F88F4D46E1E700BF1D
:10562800E404002007B501AAFFF7C0FF03B05DF846
:1056380004FB000000487047A40400200268464BA1
:10564800F0B592FBF3F403FB1422002ABCBF02F569
:10565800A83202F5C0724FF4616092FBF0F300FBD0
:1056680013224FF03C008B6092FBF0F300FB1322F7
:1056780004F52F24ACBF04F66C2404F66B244B60AD
:105688000A600723E21C92FBF3F3344DC3EBC30318
:1056980094FBF5F5D31A48F6AC6240F2B4578B6127
:1056A8002F4B304803FB0544B4FBF2F2B4FBF7F38D
:1056B800B4FBF0F02244D21A48F69466131A40F26A
:1056C8006D12B3FBF6F6B3FBF2F0B3FBF7F3344419
:1056D800E31A02FB103303EB830299240232B2FB74
:1056E800F4F25443A61C0524B6FBF4F40A2A34BF8A
:1056F80002266FF0090616444FF4C87202FB05052E
:105708005F1C012E98BF0135B3F5997FA7EB0407FD
:1057180002D3A3F5997214E0820705D16424B0FB83
:10572800F4F204FB12024AB94FF4C872B0FBF2F467
:1057380002FB1400B0FA80F2520900E001223B3368
:105748001A44A5F26C750023CA614D610E61CF60E1
:105758000B620846F0BD00BF80510100B13A02005B
:105768004FC5FDFFB03A0200704770471D0008089A
:105778005D000808890008088D000808000000007E
:10578800257320533A25322E306625252C20513A90
:1057980025322E30662525200054696D652020208D
:1057A80020202020202020202020202020436F752A
:1057B8006E7420204475726174696F6E0020202019
:1057C8000020736563005265706F727420636F6D9B
:1057D800706C657465202D20707265737320726516
:1057E80073657420627574746F6E20746F207265AF
:1057F80073746172740041542B4346554E3D3136E3
:105808000D0A00526573657474696E6720696E20AD
:1058180070726F67726573730032352520646F6E1E
:10582800650035302520646F6E65003735252064A6
:105838006F6E6500446F6E65004E657720766973FC
:1058480069743A2025692C206475726174696F6ED9
:10585800206F66202569004E6F726D616C204F7055
:1058680065726174696F6E73007B22686F75726C04
:1058780079223A25692C20226176676475726174F1
:10588800696F6E223A25692C20226461696C79223D
:105898003A25692C2262617474657279223A256905
:1058A8002C202274656D70223A25692C202272659D
:1058B80073657473223A25697D004F63637570615F
:1058C8006E63795F486F6F6B00446973636F6E6EC8
:1058D800656374696E672066726F6D2050617274BB
:1058E80069636C6500537461746500576169746914
:1058F8006E6720666F7220526573706F6E736500F5
:1059080049646C6500526573706F6E7365205469E5
:105918006D656F7574204572726F72004552524FF3
:10592800525F5354415445202D2052657365747459
:10593800696E67004E6F2044617461005562696446
:105948006F747320486F6F6B00526573706F6E735E
:10595800652052656365697665640056616C756596
:1059680073206172653A206B65657053657373695E
:105978006F6E3A202569005661726961626C6573C1
:105988000053657420536F6C617220506F77657295
:105998006564204D6F646500436C656172656420C1
:1059A800536F6C617220506F7765726564204D6F1C
:1059B80064650053657420566572626F7365204D87
:1059C8006F646500436C6561726564205665726238
:1059D8006F7365204D6F64650054696D65207A6F3B
:1059E8006E65206F6666736574202569004F706563
:1059F8006E2074696D652073657420746F20256945
:105A080000436C6F73696E672074696D65207365F8
:105A18007420746F202569004C6F7720506F77656C
:105A28007200486F75726C79436F756E74004461CB
:105A3800696C79436F756E74006B65657053657337
:105A480073696F6E005369676E616C0052657365A8
:105A580074436F756E740052656C6561736500738D
:105A6800746174654F66436867006C6F77506F7731
:105A780065724D6F646500436C6F736554696D653D
:105A88000052657365742D4652414D005265736529
:105A9800742D436F756E747300486172642D52657E
:105AA800736574004B65657053657373696F6E0039
:105AB80053656E642D4E6F77004C6F77506F776526
:105AC800724D6F646500536F6C61722D4D6F646524
